{
  "contractName": "NFTResolver",
  "abi": [
    {
      "inputs": [
        {
          "internalType": "address",
          "name": "contract_add",
          "type": "address"
        }
      ],
      "name": "checker",
      "outputs": [
        {
          "internalType": "bool",
          "name": "canExec",
          "type": "bool"
        },
        {
          "internalType": "bytes",
          "name": "execPayload",
          "type": "bytes"
        }
      ],
      "stateMutability": "view",
      "type": "function",
      "constant": true
    }
  ],
  "bytecode": "0x608060405234801561001057600080fd5b506109d4806100206000396000f3fe608060405234801561001057600080fd5b506004361061002b5760003560e01c8063016c683c14610030575b600080fd5b61004a600480360381019061004591906105a9565b610061565b604051610058929190610681565b60405180910390f35b6000606060008373ffffffffffffffffffffffffffffffffffffffff16637ee454cb6040518163ffffffff1660e01b8152600401600060405180830381865afa1580156100b2573d6000803e3d6000fd5b505050506040513d6000823e3d601f19601f820116820180604052508101906100db919061082f565b905060005b815181101561052f5760005b8573ffffffffffffffffffffffffffffffffffffffff1663f5a6512084848151811061011b5761011a610878565b5b60200260200101516040518263ffffffff1660e01b815260040161013f91906108b6565b602060405180830381865afa15801561015c573d6000803e3d6000fd5b505050506040513d601f19601f8201168201806040525081019061018091906108d1565b81101561051b57428673ffffffffffffffffffffffffffffffffffffffff16637fc5a60f8585815181106101b7576101b6610878565b5b60200260200101518973ffffffffffffffffffffffffffffffffffffffff16635ccdfa5e8888815181106101ee576101ed610878565b5b6020026020010151876040518363ffffffff1660e01b81526004016102149291906108fe565b602060405180830381865afa158015610231573d6000803e3d6000fd5b505050506040513d601f19601f8201168201806040525081019061025591906108d1565b6040518363ffffffff1660e01b81526004016102729291906108fe565b602060405180830381865afa15801561028f573d6000803e3d6000fd5b505050506040513d601f19601f820116820180604052508101906102b391906108d1565b1080156103ea575060028673ffffffffffffffffffffffffffffffffffffffff1663a745da658585815181106102ec576102eb610878565b5b60200260200101518973ffffffffffffffffffffffffffffffffffffffff16635ccdfa5e88888151811061032357610322610878565b5b6020026020010151876040518363ffffffff1660e01b81526004016103499291906108fe565b602060405180830381865afa158015610366573d6000803e3d6000fd5b505050506040513d601f19601f8201168201806040525081019061038a91906108d1565b6040518363ffffffff1660e01b81526004016103a79291906108fe565b602060405180830381865afa1580156103c4573d6000803e3d6000fd5b505050506040513d601f19601f820116820180604052508101906103e891906108d1565b145b15610508576342966c6860e01b8673ffffffffffffffffffffffffffffffffffffffff16635ccdfa5e85858151811061042657610425610878565b5b6020026020010151846040518363ffffffff1660e01b815260040161044c9291906108fe565b602060405180830381865afa158015610469573d6000803e3d6000fd5b505050506040513d601f19601f8201168201806040525081019061048d91906108d1565b60405160240161049d91906108b6565b604051602081830303815290604052907bffffffffffffffffffffffffffffffffffffffffffffffffffffffff19166020820180517bffffffffffffffffffffffffffffffffffffffffffffffffffffffff8381831617835250505050935060019450505050610532565b808061051390610956565b9150506100ec565b50808061052790610956565b9150506100e0565b50505b915091565b6000604051905090565b600080fd5b600080fd5b600073ffffffffffffffffffffffffffffffffffffffff82169050919050565b60006105768261054b565b9050919050565b6105868161056b565b811461059157600080fd5b50565b6000813590506105a38161057d565b92915050565b6000602082840312156105bf576105be610541565b5b60006105cd84828501610594565b91505092915050565b60008115159050919050565b6105eb816105d6565b82525050565b600081519050919050565b600082825260208201905092915050565b60005b8381101561062b578082015181840152602081019050610610565b60008484015250505050565b6000601f19601f8301169050919050565b6000610653826105f1565b61065d81856105fc565b935061066d81856020860161060d565b61067681610637565b840191505092915050565b600060408201905061069660008301856105e2565b81810360208301526106a88184610648565b90509392505050565b600080fd5b7f4e487b7100000000000000000000000000000000000000000000000000000000600052604160045260246000fd5b6106ee82610637565b810181811067ffffffffffffffff8211171561070d5761070c6106b6565b5b80604052505050565b6000610720610537565b905061072c82826106e5565b919050565b600067ffffffffffffffff82111561074c5761074b6106b6565b5b602082029050602081019050919050565b600080fd5b6000819050919050565b61077581610762565b811461078057600080fd5b50565b6000815190506107928161076c565b92915050565b60006107ab6107a684610731565b610716565b905080838252602082019050602084028301858111156107ce576107cd61075d565b5b835b818110156107f757806107e38882610783565b8452602084019350506020810190506107d0565b5050509392505050565b600082601f830112610816576108156106b1565b5b8151610826848260208601610798565b91505092915050565b60006020828403121561084557610844610541565b5b600082015167ffffffffffffffff81111561086357610862610546565b5b61086f84828501610801565b91505092915050565b7f4e487b7100000000000000000000000000000000000000000000000000000000600052603260045260246000fd5b6108b081610762565b82525050565b60006020820190506108cb60008301846108a7565b92915050565b6000602082840312156108e7576108e6610541565b5b60006108f584828501610783565b91505092915050565b600060408201905061091360008301856108a7565b61092060208301846108a7565b9392505050565b7f4e487b7100000000000000000000000000000000000000000000000000000000600052601160045260246000fd5b600061096182610762565b91507fffffffffffffffffffffffffffffffffffffffffffffffffffffffffffffffff820361099357610992610927565b5b60018201905091905056fea264697066735822122068890d5e54b494efbcdcbda2e3cf0db4276bdcb00d9a2e1671abdfc25fd86a3b64736f6c63430008120033",
  "immutableReferences": {},
  "source": "//SPDX-License-Identifier: GPL-3.0\npragma solidity ^0.8.0;\n\ninterface INFTWarranty {\n    function getSellerNFTs(uint256 sellerId)\n        external\n        view\n        returns (uint256[] memory);\n\n    function getSellers() external view returns (uint256[] memory);\n\n    function getExpiry(uint256 sellerId, uint256 tokenId)\n        external\n        view\n        returns (uint256 expiry);\n\n    function getCreation(uint256 sellerId, uint256 tokenId)\n        external\n        view\n        returns (uint256 creation);\n\n    function getStatus(uint256 sellerId, uint256 tokenId)\n        external\n        view\n        returns (uint256 stat);\n        function getSellerNFT(uint256 sellerId,uint256 Index)external view returns(uint256);\n        function getSellerNFTSize(uint256 sellerId)external view returns(uint256);\n\n    function burn(uint256 tokenId) external;\n}\n\ncontract NFTResolver {\n    function checker(address contract_add)\n        external\n        view\n        returns (bool canExec, bytes memory execPayload)\n    // returns(uint256 []  memory arr)\n    {\n        uint256[] memory ans = INFTWarranty(contract_add).getSellers();\n        for (uint256 i = 0; i < ans.length; i++) {\n\n            for (uint256 j = 0; j <  INFTWarranty(contract_add).getSellerNFTSize(ans[i]); j++) {\n                //uint256 creationTime =  INFTWarranty(contract_add).getCreation(ans[i],nfts[i]);\n                if (\n                    (INFTWarranty(contract_add).getExpiry(ans[i],INFTWarranty(contract_add).getSellerNFT(ans[i],j) ) <\n                        block.timestamp) &&\n                    (INFTWarranty(contract_add).getStatus(ans[i], INFTWarranty(contract_add).getSellerNFT(ans[i],j)) == 2)\n                ) {\n                    execPayload = abi.encodeWithSelector(\n                        INFTWarranty.burn.selector,\n                        uint256(INFTWarranty(contract_add).getSellerNFT(ans[i],j))\n                    );\n                    return (true, execPayload);\n                }\n                // if (\n                //     INFTWarranty(contract_add).getExpiry(ans[i], INFTWarranty(contract_add).getSellerNFT(ans[i],j)) >\n                //     block.timestamp ||\n                //     INFTWarranty(contract_add).getStatus(ans[i], INFTWarranty(contract_add).getSellerNFT(ans[i],j)) ==\n                //     0 ||\n                //     INFTWarranty(contract_add).getStatus(ans[i], INFTWarranty(contract_add).getSellerNFT(ans[i],j)) ==\n                //     1 ||\n                //     INFTWarranty(contract_add).getStatus(ans[i], INFTWarranty(contract_add).getSellerNFT(ans[i],j)) == 3\n                // ) {\n                //     return (false, bytes(\"Session is ongoing\"));\n                // }\n            }\n        }\n    }\n}\n",
  "sourcePath": "D:\\Dev\\BlockChain\\NFTDocket\\NFTDocket-master\\contracts\\NFTResolver.sol",
  "compiler": {
    "name": "solc",
    "version": "0.8.18+commit.87f61d96.Emscripten.clang"
  },
  "schemaVersion": "3.4.8",
  "updatedAt": "2023-02-19T12:42:30.710Z",
  "networkType": "ethereum",
  "devdoc": {
    "kind": "dev",
    "methods": {},
    "version": 1
  },
  "userdoc": {
    "kind": "user",
    "methods": {},
    "version": 1
  }
}