{
  "contractName": "NFTWarranty",
  "abi": [
    {
      "inputs": [],
      "stateMutability": "nonpayable",
      "type": "constructor"
    },
    {
      "anonymous": false,
      "inputs": [
        {
          "indexed": true,
          "internalType": "address",
          "name": "owner",
          "type": "address"
        },
        {
          "indexed": true,
          "internalType": "address",
          "name": "approved",
          "type": "address"
        },
        {
          "indexed": true,
          "internalType": "uint256",
          "name": "tokenId",
          "type": "uint256"
        }
      ],
      "name": "Approval",
      "type": "event"
    },
    {
      "anonymous": false,
      "inputs": [
        {
          "indexed": true,
          "internalType": "address",
          "name": "owner",
          "type": "address"
        },
        {
          "indexed": true,
          "internalType": "address",
          "name": "operator",
          "type": "address"
        },
        {
          "indexed": false,
          "internalType": "bool",
          "name": "approved",
          "type": "bool"
        }
      ],
      "name": "ApprovalForAll",
      "type": "event"
    },
    {
      "anonymous": false,
      "inputs": [
        {
          "indexed": true,
          "internalType": "address",
          "name": "from",
          "type": "address"
        },
        {
          "indexed": true,
          "internalType": "address",
          "name": "to",
          "type": "address"
        },
        {
          "indexed": true,
          "internalType": "uint256",
          "name": "tokenId",
          "type": "uint256"
        }
      ],
      "name": "Transfer",
      "type": "event"
    },
    {
      "inputs": [
        {
          "internalType": "address",
          "name": "",
          "type": "address"
        }
      ],
      "name": "addressToSellerId",
      "outputs": [
        {
          "internalType": "uint256",
          "name": "",
          "type": "uint256"
        }
      ],
      "stateMutability": "view",
      "type": "function",
      "constant": true
    },
    {
      "inputs": [
        {
          "internalType": "uint256",
          "name": "",
          "type": "uint256"
        }
      ],
      "name": "allSellers",
      "outputs": [
        {
          "internalType": "uint256",
          "name": "id",
          "type": "uint256"
        },
        {
          "internalType": "uint256",
          "name": "itemCounter",
          "type": "uint256"
        },
        {
          "internalType": "address",
          "name": "owner",
          "type": "address"
        }
      ],
      "stateMutability": "view",
      "type": "function",
      "constant": true
    },
    {
      "inputs": [
        {
          "internalType": "address",
          "name": "to",
          "type": "address"
        },
        {
          "internalType": "uint256",
          "name": "tokenId",
          "type": "uint256"
        }
      ],
      "name": "approve",
      "outputs": [],
      "stateMutability": "nonpayable",
      "type": "function"
    },
    {
      "inputs": [
        {
          "internalType": "address",
          "name": "owner",
          "type": "address"
        }
      ],
      "name": "balanceOf",
      "outputs": [
        {
          "internalType": "uint256",
          "name": "",
          "type": "uint256"
        }
      ],
      "stateMutability": "view",
      "type": "function",
      "constant": true
    },
    {
      "inputs": [
        {
          "internalType": "address",
          "name": "",
          "type": "address"
        },
        {
          "internalType": "uint256",
          "name": "",
          "type": "uint256"
        }
      ],
      "name": "buyersCollection",
      "outputs": [
        {
          "internalType": "uint256",
          "name": "",
          "type": "uint256"
        }
      ],
      "stateMutability": "view",
      "type": "function",
      "constant": true
    },
    {
      "inputs": [
        {
          "internalType": "address",
          "name": "",
          "type": "address"
        }
      ],
      "name": "buyersCount",
      "outputs": [
        {
          "internalType": "uint256",
          "name": "",
          "type": "uint256"
        }
      ],
      "stateMutability": "view",
      "type": "function",
      "constant": true
    },
    {
      "inputs": [
        {
          "internalType": "uint256",
          "name": "tokenId",
          "type": "uint256"
        }
      ],
      "name": "getApproved",
      "outputs": [
        {
          "internalType": "address",
          "name": "",
          "type": "address"
        }
      ],
      "stateMutability": "view",
      "type": "function",
      "constant": true
    },
    {
      "inputs": [
        {
          "internalType": "address",
          "name": "owner",
          "type": "address"
        },
        {
          "internalType": "address",
          "name": "operator",
          "type": "address"
        }
      ],
      "name": "isApprovedForAll",
      "outputs": [
        {
          "internalType": "bool",
          "name": "",
          "type": "bool"
        }
      ],
      "stateMutability": "view",
      "type": "function",
      "constant": true
    },
    {
      "inputs": [],
      "name": "name",
      "outputs": [
        {
          "internalType": "string",
          "name": "",
          "type": "string"
        }
      ],
      "stateMutability": "view",
      "type": "function",
      "constant": true
    },
    {
      "inputs": [
        {
          "internalType": "uint256",
          "name": "tokenId",
          "type": "uint256"
        }
      ],
      "name": "ownerOf",
      "outputs": [
        {
          "internalType": "address",
          "name": "",
          "type": "address"
        }
      ],
      "stateMutability": "view",
      "type": "function",
      "constant": true
    },
    {
      "inputs": [
        {
          "internalType": "address",
          "name": "from",
          "type": "address"
        },
        {
          "internalType": "address",
          "name": "to",
          "type": "address"
        },
        {
          "internalType": "uint256",
          "name": "tokenId",
          "type": "uint256"
        }
      ],
      "name": "safeTransferFrom",
      "outputs": [],
      "stateMutability": "nonpayable",
      "type": "function"
    },
    {
      "inputs": [
        {
          "internalType": "address",
          "name": "from",
          "type": "address"
        },
        {
          "internalType": "address",
          "name": "to",
          "type": "address"
        },
        {
          "internalType": "uint256",
          "name": "tokenId",
          "type": "uint256"
        },
        {
          "internalType": "bytes",
          "name": "data",
          "type": "bytes"
        }
      ],
      "name": "safeTransferFrom",
      "outputs": [],
      "stateMutability": "nonpayable",
      "type": "function"
    },
    {
      "inputs": [
        {
          "internalType": "uint256",
          "name": "",
          "type": "uint256"
        },
        {
          "internalType": "uint256",
          "name": "",
          "type": "uint256"
        }
      ],
      "name": "sellerWarrantyDetails",
      "outputs": [
        {
          "internalType": "uint256",
          "name": "tokenId",
          "type": "uint256"
        },
        {
          "internalType": "bytes32",
          "name": "verifyHash",
          "type": "bytes32"
        },
        {
          "internalType": "uint256",
          "name": "creationTime",
          "type": "uint256"
        },
        {
          "internalType": "string",
          "name": "productId",
          "type": "string"
        },
        {
          "internalType": "string",
          "name": "imageURI",
          "type": "string"
        },
        {
          "internalType": "uint256",
          "name": "expiry",
          "type": "uint256"
        },
        {
          "internalType": "enum NFTWarranty.NFTStatus",
          "name": "status",
          "type": "uint8"
        }
      ],
      "stateMutability": "view",
      "type": "function",
      "constant": true
    },
    {
      "inputs": [
        {
          "internalType": "address",
          "name": "operator",
          "type": "address"
        },
        {
          "internalType": "bool",
          "name": "approved",
          "type": "bool"
        }
      ],
      "name": "setApprovalForAll",
      "outputs": [],
      "stateMutability": "nonpayable",
      "type": "function"
    },
    {
      "inputs": [
        {
          "internalType": "bytes4",
          "name": "interfaceId",
          "type": "bytes4"
        }
      ],
      "name": "supportsInterface",
      "outputs": [
        {
          "internalType": "bool",
          "name": "",
          "type": "bool"
        }
      ],
      "stateMutability": "view",
      "type": "function",
      "constant": true
    },
    {
      "inputs": [],
      "name": "symbol",
      "outputs": [
        {
          "internalType": "string",
          "name": "",
          "type": "string"
        }
      ],
      "stateMutability": "view",
      "type": "function",
      "constant": true
    },
    {
      "inputs": [
        {
          "internalType": "uint256",
          "name": "tokenId",
          "type": "uint256"
        }
      ],
      "name": "tokenURI",
      "outputs": [
        {
          "internalType": "string",
          "name": "",
          "type": "string"
        }
      ],
      "stateMutability": "view",
      "type": "function",
      "constant": true
    },
    {
      "inputs": [
        {
          "internalType": "uint256",
          "name": "",
          "type": "uint256"
        },
        {
          "internalType": "uint256",
          "name": "",
          "type": "uint256"
        }
      ],
      "name": "tokenURIList",
      "outputs": [
        {
          "internalType": "string",
          "name": "",
          "type": "string"
        }
      ],
      "stateMutability": "view",
      "type": "function",
      "constant": true
    },
    {
      "inputs": [
        {
          "internalType": "uint256",
          "name": "",
          "type": "uint256"
        }
      ],
      "name": "totalSellers",
      "outputs": [
        {
          "internalType": "uint256",
          "name": "",
          "type": "uint256"
        }
      ],
      "stateMutability": "view",
      "type": "function",
      "constant": true
    },
    {
      "inputs": [
        {
          "internalType": "address",
          "name": "from",
          "type": "address"
        },
        {
          "internalType": "address",
          "name": "to",
          "type": "address"
        },
        {
          "internalType": "uint256",
          "name": "tokenId",
          "type": "uint256"
        }
      ],
      "name": "transferFrom",
      "outputs": [],
      "stateMutability": "nonpayable",
      "type": "function"
    },
    {
      "inputs": [
        {
          "internalType": "string",
          "name": "productId",
          "type": "string"
        },
        {
          "internalType": "uint256",
          "name": "sellerId",
          "type": "uint256"
        },
        {
          "internalType": "uint256",
          "name": "tokenId",
          "type": "uint256"
        }
      ],
      "name": "verifyOwnership",
      "outputs": [
        {
          "internalType": "bool",
          "name": "",
          "type": "bool"
        }
      ],
      "stateMutability": "nonpayable",
      "type": "function"
    },
    {
      "inputs": [
        {
          "internalType": "uint256",
          "name": "sellerId",
          "type": "uint256"
        },
        {
          "internalType": "uint256",
          "name": "tokenId",
          "type": "uint256"
        }
      ],
      "name": "claimNMint",
      "outputs": [],
      "stateMutability": "nonpayable",
      "type": "function"
    },
    {
      "inputs": [
        {
          "internalType": "uint256",
          "name": "sellerId",
          "type": "uint256"
        }
      ],
      "name": "createSeller",
      "outputs": [],
      "stateMutability": "nonpayable",
      "type": "function"
    },
    {
      "inputs": [
        {
          "internalType": "string",
          "name": "tokenURI",
          "type": "string"
        },
        {
          "internalType": "uint256",
          "name": "sellerId",
          "type": "uint256"
        },
        {
          "internalType": "string",
          "name": "productId",
          "type": "string"
        },
        {
          "internalType": "address",
          "name": "customer",
          "type": "address"
        },
        {
          "internalType": "uint256",
          "name": "expiry",
          "type": "uint256"
        },
        {
          "internalType": "string",
          "name": "imageURI",
          "type": "string"
        }
      ],
      "name": "createNFT",
      "outputs": [],
      "stateMutability": "nonpayable",
      "type": "function"
    },
    {
      "inputs": [
        {
          "internalType": "address",
          "name": "to",
          "type": "address"
        },
        {
          "internalType": "uint256",
          "name": "tokenId",
          "type": "uint256"
        },
        {
          "internalType": "uint256",
          "name": "sellerId",
          "type": "uint256"
        }
      ],
      "name": "resell",
      "outputs": [],
      "stateMutability": "nonpayable",
      "type": "function"
    },
    {
      "inputs": [
        {
          "internalType": "uint256",
          "name": "tokenId",
          "type": "uint256"
        }
      ],
      "name": "burn",
      "outputs": [],
      "stateMutability": "nonpayable",
      "type": "function"
    },
    {
      "inputs": [
        {
          "internalType": "uint256",
          "name": "sellerId",
          "type": "uint256"
        }
      ],
      "name": "getSellerNFTs",
      "outputs": [
        {
          "internalType": "uint256[]",
          "name": "",
          "type": "uint256[]"
        }
      ],
      "stateMutability": "view",
      "type": "function",
      "constant": true
    },
    {
      "inputs": [],
      "name": "getSellers",
      "outputs": [
        {
          "internalType": "uint256[]",
          "name": "",
          "type": "uint256[]"
        }
      ],
      "stateMutability": "view",
      "type": "function",
      "constant": true
    },
    {
      "inputs": [
        {
          "internalType": "uint256",
          "name": "sellerId",
          "type": "uint256"
        },
        {
          "internalType": "uint256",
          "name": "tokenId",
          "type": "uint256"
        }
      ],
      "name": "getExpiry",
      "outputs": [
        {
          "internalType": "uint256",
          "name": "expiry",
          "type": "uint256"
        }
      ],
      "stateMutability": "view",
      "type": "function",
      "constant": true
    },
    {
      "inputs": [
        {
          "internalType": "uint256",
          "name": "sellerId",
          "type": "uint256"
        },
        {
          "internalType": "uint256",
          "name": "tokenId",
          "type": "uint256"
        }
      ],
      "name": "getCreation",
      "outputs": [
        {
          "internalType": "uint256",
          "name": "creation",
          "type": "uint256"
        }
      ],
      "stateMutability": "view",
      "type": "function",
      "constant": true
    },
    {
      "inputs": [
        {
          "internalType": "uint256",
          "name": "sellerId",
          "type": "uint256"
        },
        {
          "internalType": "uint256",
          "name": "tokenId",
          "type": "uint256"
        }
      ],
      "name": "getSellerWarrantyDetails",
      "outputs": [
        {
          "components": [
            {
              "internalType": "uint256",
              "name": "tokenId",
              "type": "uint256"
            },
            {
              "internalType": "bytes32",
              "name": "verifyHash",
              "type": "bytes32"
            },
            {
              "internalType": "uint256",
              "name": "creationTime",
              "type": "uint256"
            },
            {
              "internalType": "string",
              "name": "productId",
              "type": "string"
            },
            {
              "internalType": "string",
              "name": "imageURI",
              "type": "string"
            },
            {
              "internalType": "uint256",
              "name": "expiry",
              "type": "uint256"
            },
            {
              "internalType": "address[]",
              "name": "buyers",
              "type": "address[]"
            },
            {
              "internalType": "uint256[]",
              "name": "buyersDate",
              "type": "uint256[]"
            },
            {
              "internalType": "enum NFTWarranty.NFTStatus",
              "name": "status",
              "type": "uint8"
            }
          ],
          "internalType": "struct NFTWarranty.warrantyDetails",
          "name": "",
          "type": "tuple"
        }
      ],
      "stateMutability": "view",
      "type": "function",
      "constant": true
    },
    {
      "inputs": [
        {
          "internalType": "address",
          "name": "add",
          "type": "address"
        },
        {
          "internalType": "uint256",
          "name": "index",
          "type": "uint256"
        }
      ],
      "name": "getBuyersCollection",
      "outputs": [
        {
          "internalType": "uint256",
          "name": "",
          "type": "uint256"
        }
      ],
      "stateMutability": "view",
      "type": "function",
      "constant": true
    },
    {
      "inputs": [
        {
          "internalType": "uint256",
          "name": "sellerId",
          "type": "uint256"
        },
        {
          "internalType": "uint256",
          "name": "tokenId",
          "type": "uint256"
        }
      ],
      "name": "getStatus",
      "outputs": [
        {
          "internalType": "uint256",
          "name": "stat",
          "type": "uint256"
        }
      ],
      "stateMutability": "view",
      "type": "function",
      "constant": true
    },
    {
      "inputs": [
        {
          "internalType": "uint256",
          "name": "sellerId",
          "type": "uint256"
        },
        {
          "internalType": "uint256",
          "name": "Index",
          "type": "uint256"
        }
      ],
      "name": "getSellerNFT",
      "outputs": [
        {
          "internalType": "uint256",
          "name": "",
          "type": "uint256"
        }
      ],
      "stateMutability": "view",
      "type": "function",
      "constant": true
    },
    {
      "inputs": [
        {
          "internalType": "uint256",
          "name": "sellerId",
          "type": "uint256"
        }
      ],
      "name": "getSellerNFTSize",
      "outputs": [
        {
          "internalType": "uint256",
          "name": "",
          "type": "uint256"
        }
      ],
      "stateMutability": "view",
      "type": "function",
      "constant": true
    }
  ],
  "bytecode": "0x60806040523480156200001157600080fd5b506040518060400160405280601181526020017f4e4654446f636b657457617272616e74790000000000000000000000000000008152506040518060400160405280600581526020017f4e4654445700000000000000000000000000000000000000000000000000000081525081600090816200008f919062000324565b508060019081620000a1919062000324565b5050506200040b565b600081519050919050565b7f4e487b7100000000000000000000000000000000000000000000000000000000600052604160045260246000fd5b7f4e487b7100000000000000000000000000000000000000000000000000000000600052602260045260246000fd5b600060028204905060018216806200012c57607f821691505b602082108103620001425762000141620000e4565b5b50919050565b60008190508160005260206000209050919050565b60006020601f8301049050919050565b600082821b905092915050565b600060088302620001ac7fffffffffffffffffffffffffffffffffffffffffffffffffffffffffffffffff826200016d565b620001b886836200016d565b95508019841693508086168417925050509392505050565b6000819050919050565b6000819050919050565b600062000205620001ff620001f984620001d0565b620001da565b620001d0565b9050919050565b6000819050919050565b6200022183620001e4565b6200023962000230826200020c565b8484546200017a565b825550505050565b600090565b6200025062000241565b6200025d81848462000216565b505050565b5b8181101562000285576200027960008262000246565b60018101905062000263565b5050565b601f821115620002d4576200029e8162000148565b620002a9846200015d565b81016020851015620002b9578190505b620002d1620002c8856200015d565b83018262000262565b50505b505050565b600082821c905092915050565b6000620002f960001984600802620002d9565b1980831691505092915050565b6000620003148383620002e6565b9150826002028217905092915050565b6200032f82620000aa565b67ffffffffffffffff8111156200034b576200034a620000b5565b5b62000357825462000113565b6200036482828562000289565b600060209050601f8311600181146200039c576000841562000387578287015190505b62000393858262000306565b86555062000403565b601f198416620003ac8662000148565b60005b82811015620003d657848901518255600182019150602085019450602081019050620003af565b86831015620003f65784890151620003f2601f891682620002e6565b8355505b6001600288020188555050505b505050505050565b614fed806200041b6000396000f3fe608060405234801561001057600080fd5b50600436106102115760003560e01c80637f3b2cf411610125578063b88d4fde116100ad578063e985e9c51161007c578063e985e9c5146106d2578063e9b2c95e14610702578063ed4a4a2414610732578063f5601e4b14610764578063f5a651201461078057610211565b8063b88d4fde1461063a578063c839d38c14610656578063c87b56dd14610672578063d963729d146106a257610211565b806395d89b41116100f457806395d89b411461056a578063a22cb46514610588578063a745da65146105a4578063aa8c7835146105d4578063afbd903a1461060a57610211565b80637f3b2cf4146104be5780637fc5a60f146104da5780638721f9fc1461050a5780639567253f1461053a57610211565b80632d5052d9116101a85780636352211e116101775780636352211e146103e0578063644190b81461041057806369ac439b1461044057806370a08231146104705780637ee454cb146104a057610211565b80632d5052d91461034857806342842e0e1461037857806342966c68146103945780635ccdfa5e146103b057610211565b806315f7b2e5116101e457806315f7b2e5146102b05780631846f582146102e05780631faea033146102fc57806323b872dd1461032c57610211565b806301ffc9a71461021657806306fdde0314610246578063081812fc14610264578063095ea7b314610294575b600080fd5b610230600480360381019061022b91906134c6565b6107b0565b60405161023d919061350e565b60405180910390f35b61024e610892565b60405161025b91906135b9565b60405180910390f35b61027e60048036038101906102799190613611565b610924565b60405161028b919061367f565b60405180910390f35b6102ae60048036038101906102a991906136c6565b61096a565b005b6102ca60048036038101906102c5919061383b565b610a81565b6040516102d7919061350e565b60405180910390f35b6102fa60048036038101906102f591906138aa565b610b3e565b005b610316600480360381019061031191906138aa565b610cb7565b6040516103239190613c1a565b60405180910390f35b61034660048036038101906103419190613c3c565b610f64565b005b610362600480360381019061035d91906136c6565b610fc4565b60405161036f9190613c9e565b60405180910390f35b610392600480360381019061038d9190613c3c565b610ff5565b005b6103ae60048036038101906103a99190613611565b611015565b005b6103ca60048036038101906103c591906138aa565b6110b9565b6040516103d79190613c9e565b60405180910390f35b6103fa60048036038101906103f59190613611565b6110f6565b604051610407919061367f565b60405180910390f35b61042a60048036038101906104259190613cb9565b6111a7565b6040516104379190613c9e565b60405180910390f35b61045a60048036038101906104559190613611565b6111bf565b6040516104679190613d55565b60405180910390f35b61048a60048036038101906104859190613cb9565b61122d565b6040516104979190613c9e565b60405180910390f35b6104a86112e4565b6040516104b59190613d55565b60405180910390f35b6104d860048036038101906104d39190613d77565b61133c565b005b6104f460048036038101906104ef91906138aa565b6118e2565b6040516105019190613c9e565b60405180910390f35b610524600480360381019061051f9190613cb9565b611914565b6040516105319190613c9e565b60405180910390f35b610554600480360381019061054f9190613611565b61192c565b6040516105619190613c9e565b60405180910390f35b610572611950565b60405161057f91906135b9565b60405180910390f35b6105a2600480360381019061059d9190613e84565b6119e2565b005b6105be60048036038101906105b991906138aa565b6119f8565b6040516105cb9190613c9e565b60405180910390f35b6105ee60048036038101906105e991906138aa565b611ba3565b6040516106019796959493929190613ee2565b60405180910390f35b610624600480360381019061061f91906138aa565b611d0f565b60405161063191906135b9565b60405180910390f35b610654600480360381019061064f9190614000565b611dbc565b005b610670600480360381019061066b9190614083565b611e1e565b005b61068c60048036038101906106879190613611565b611ff4565b60405161069991906135b9565b60405180910390f35b6106bc60048036038101906106b791906138aa565b612106565b6040516106c99190613c9e565b60405180910390f35b6106ec60048036038101906106e791906140d6565b612138565b6040516106f9919061350e565b60405180910390f35b61071c600480360381019061071791906136c6565b6121cc565b6040516107299190613c9e565b60405180910390f35b61074c60048036038101906107479190613611565b612232565b60405161075b93929190614116565b60405180910390f35b61077e60048036038101906107799190613611565b61227c565b005b61079a60048036038101906107959190613611565b612476565b6040516107a79190613c9e565b60405180910390f35b60007f80ac58cd000000000000000000000000000000000000000000000000000000007bffffffffffffffffffffffffffffffffffffffffffffffffffffffff1916827bffffffffffffffffffffffffffffffffffffffffffffffffffffffff1916148061087b57507f5b5e139f000000000000000000000000000000000000000000000000000000007bffffffffffffffffffffffffffffffffffffffffffffffffffffffff1916827bffffffffffffffffffffffffffffffffffffffffffffffffffffffff1916145b8061088b575061088a82612499565b5b9050919050565b6060600080546108a19061417c565b80601f01602080910402602001604051908101604052809291908181526020018280546108cd9061417c565b801561091a5780601f106108ef5761010080835404028352916020019161091a565b820191906000526020600020905b8154815290600101906020018083116108fd57829003601f168201915b5050505050905090565b600061092f82612503565b6004600083815260200190815260200160002060009054906101000a900473ffffffffffffffffffffffffffffffffffffffff169050919050565b6000610975826110f6565b90508073ffffffffffffffffffffffffffffffffffffffff168373ffffffffffffffffffffffffffffffffffffffff16036109e5576040517f08c379a00000000000000000000000000000000000000000000000000000000081526004016109dc9061421f565b60405180910390fd5b8073ffffffffffffffffffffffffffffffffffffffff16610a0461254e565b73ffffffffffffffffffffffffffffffffffffffff161480610a335750610a3281610a2d61254e565b612138565b5b610a72576040517f08c379a0000000000000000000000000000000000000000000000000000000008152600401610a69906142b1565b60405180910390fd5b610a7c8383612556565b505050565b60003384604051602001610a969291906142d1565b60405160208183030381529060405280519060200120600a600085815260200190815260200160002060008481526020019081526020016000206001015403610b32576001600a6000858152602001908152602001600020600084815260200190815260200160002060080160006101000a81548160ff02191690836003811115610b2457610b23613ac9565b5b021790555060019050610b37565b600090505b9392505050565b60016003811115610b5257610b51613ac9565b5b600a6000848152602001908152602001600020600083815260200190815260200160002060080160009054906101000a900460ff166003811115610b9957610b98613ac9565b5b14610ba357600080fd5b610bad338261260f565b610c6381600b600085815260200190815260200160002060008481526020019081526020016000208054610be09061417c565b80601f0160208091040260200160405190810160405280929190818152602001828054610c0c9061417c565b8015610c595780601f10610c2e57610100808354040283529160200191610c59565b820191906000526020600020905b815481529060010190602001808311610c3c57829003601f168201915b50505050506127e8565b6002600a6000848152602001908152602001600020600083815260200190815260200160002060080160006101000a81548160ff02191690836003811115610cae57610cad613ac9565b5b02179055505050565b610cbf613287565b600a6000848152602001908152602001600020600083815260200190815260200160002060405180610120016040529081600082015481526020016001820154815260200160028201548152602001600382018054610d1d9061417c565b80601f0160208091040260200160405190810160405280929190818152602001828054610d499061417c565b8015610d965780601f10610d6b57610100808354040283529160200191610d96565b820191906000526020600020905b815481529060010190602001808311610d7957829003601f168201915b50505050508152602001600482018054610daf9061417c565b80601f0160208091040260200160405190810160405280929190818152602001828054610ddb9061417c565b8015610e285780601f10610dfd57610100808354040283529160200191610e28565b820191906000526020600020905b815481529060010190602001808311610e0b57829003601f168201915b505050505081526020016005820154815260200160068201805480602002602001604051908101604052809291908181526020018280548015610ec057602002820191906000526020600020905b8160009054906101000a900473ffffffffffffffffffffffffffffffffffffffff1673ffffffffffffffffffffffffffffffffffffffff1681526020019060010190808311610e76575b5050505050815260200160078201805480602002602001604051908101604052809291908181526020018280548015610f1857602002820191906000526020600020905b815481526020019060010190808311610f04575b505050505081526020016008820160009054906101000a900460ff166003811115610f4657610f45613ac9565b5b6003811115610f5857610f57613ac9565b5b81525050905092915050565b610f75610f6f61254e565b82612855565b610fb4576040517f08c379a0000000000000000000000000000000000000000000000000000000008152600401610fab90614373565b60405180910390fd5b610fbf8383836128ea565b505050565b600c6020528160005260406000208181548110610fe057600080fd5b90600052602060002001600091509150505481565b61101083838360405180602001604052806000815250611dbc565b505050565b6000620f42408261102691906143f1565b9050600a600082815260200190815260200160002060008381526020019081526020016000206005015442101561105c57600080fd5b61106582612b50565b6003600a6000838152602001908152602001600020600084815260200190815260200160002060080160006101000a81548160ff021916908360038111156110b0576110af613ac9565b5b02179055505050565b60006009600084815260200190815260200160002060030182815481106110e3576110e2614422565b5b9060005260206000200154905092915050565b6000806002600084815260200190815260200160002060009054906101000a900473ffffffffffffffffffffffffffffffffffffffff169050600073ffffffffffffffffffffffffffffffffffffffff168173ffffffffffffffffffffffffffffffffffffffff160361119e576040517f08c379a00000000000000000000000000000000000000000000000000000000081526004016111959061449d565b60405180910390fd5b80915050919050565b600d6020528060005260406000206000915090505481565b60606009600083815260200190815260200160002060030180548060200260200160405190810160405280929190818152602001828054801561122157602002820191906000526020600020905b81548152602001906001019080831161120d575b50505050509050919050565b60008073ffffffffffffffffffffffffffffffffffffffff168273ffffffffffffffffffffffffffffffffffffffff160361129d576040517f08c379a00000000000000000000000000000000000000000000000000000000081526004016112949061452f565b60405180910390fd5b600360008373ffffffffffffffffffffffffffffffffffffffff1673ffffffffffffffffffffffffffffffffffffffff168152602001908152602001600020549050919050565b6060600780548060200260200160405190810160405280929190818152602001828054801561133257602002820191906000526020600020905b81548152602001906001019080831161131e575b5050505050905090565b6009600086815260200190815260200160002060020160009054906101000a900473ffffffffffffffffffffffffffffffffffffffff1673ffffffffffffffffffffffffffffffffffffffff163373ffffffffffffffffffffffffffffffffffffffff16146113e0576040517f08c379a00000000000000000000000000000000000000000000000000000000081526004016113d79061459b565b60405180910390fd5b6113e8613287565b4281604001818152505083856040516020016114059291906142d1565b6040516020818303038152906040528051906020012081602001818152505082816040015161143491906145bb565b8160a001818152505060006009600088815260200190815260200160002060010154620f4240600960008a81526020019081526020016000206000015461147b91906145ef565b61148591906145bb565b905081600a6000898152602001908152602001600020600083815260200190815260200160002060008201518160000155602082015181600101556040820151816002015560608201518160030190816114df91906147dd565b5060808201518160040190816114f591906147dd565b5060a0820151816005015560c082015181600601908051906020019061151c9291906132e8565b5060e0820151816007019080519060200190611539929190613372565b506101008201518160080160006101000a81548160ff0219169083600381111561156657611565613ac9565b5b021790555090505085600a6000898152602001908152602001600020600083815260200190815260200160002060030190816115a291906147dd565b506009600088815260200190815260200160002060030181908060018154018082558091505060019003906000526020600020016000909190919091505580600a6000898152602001908152602001600020600083815260200190815260200160002060000181905550848660405160200161161f9291906142d1565b60405160208183030381529060405280519060200120600a600089815260200190815260200160002060008381526020019081526020016000206001018190555082600a60008981526020019081526020016000206000838152602001908152602001600020600401908161169491906147dd565b50600a60008881526020019081526020016000206000828152602001908152602001600020600601859080600181540180825580915050600190039060005260206000200160009091909190916101000a81548173ffffffffffffffffffffffffffffffffffffffff021916908373ffffffffffffffffffffffffffffffffffffffff1602179055506000600a6000898152602001908152602001600020600083815260200190815260200160002060080160006101000a81548160ff0219169083600381111561176857611767613ac9565b5b0217905550600a60008881526020019081526020016000206000828152602001908152602001600020600701826040015190806001815401808255809150506001900390600052602060002001600090919091909150556009600088815260200190815260200160002060010160008154809291906117e6906148af565b9190505550600c60008673ffffffffffffffffffffffffffffffffffffffff1673ffffffffffffffffffffffffffffffffffffffff168152602001908152602001600020819080600181540180825580915050600190039060005260206000200160009091909190915055600d60008673ffffffffffffffffffffffffffffffffffffffff1673ffffffffffffffffffffffffffffffffffffffff16815260200190815260200160002060008154809291906118a1906148af565b919050555087600b6000898152602001908152602001600020600083815260200190815260200160002090816118d791906147dd565b505050505050505050565b6000600a6000848152602001908152602001600020600083815260200190815260200160002060050154905092915050565b60086020528060005260406000206000915090505481565b6007818154811061193c57600080fd5b906000526020600020016000915090505481565b60606001805461195f9061417c565b80601f016020809104026020016040519081016040528092919081815260200182805461198b9061417c565b80156119d85780601f106119ad576101008083540402835291602001916119d8565b820191906000526020600020905b8154815290600101906020018083116119bb57829003601f168201915b5050505050905090565b6119f46119ed61254e565b8383612ba3565b5050565b6000806003811115611a0d57611a0c613ac9565b5b600a6000858152602001908152602001600020600084815260200190815260200160002060080160009054906101000a900460ff166003811115611a5457611a53613ac9565b5b03611a625760009050611b9d565b60016003811115611a7657611a75613ac9565b5b600a6000858152602001908152602001600020600084815260200190815260200160002060080160009054906101000a900460ff166003811115611abd57611abc613ac9565b5b03611acb5760019050611b9d565b60026003811115611adf57611ade613ac9565b5b600a6000858152602001908152602001600020600084815260200190815260200160002060080160009054906101000a900460ff166003811115611b2657611b25613ac9565b5b03611b345760029050611b9d565b600380811115611b4757611b46613ac9565b5b600a6000858152602001908152602001600020600084815260200190815260200160002060080160009054906101000a900460ff166003811115611b8e57611b8d613ac9565b5b03611b9c5760039050611b9d565b5b92915050565b600a60205281600052604060002060205280600052604060002060009150915050806000015490806001015490806002015490806003018054611be59061417c565b80601f0160208091040260200160405190810160405280929190818152602001828054611c119061417c565b8015611c5e5780601f10611c3357610100808354040283529160200191611c5e565b820191906000526020600020905b815481529060010190602001808311611c4157829003601f168201915b505050505090806004018054611c739061417c565b80601f0160208091040260200160405190810160405280929190818152602001828054611c9f9061417c565b8015611cec5780601f10611cc157610100808354040283529160200191611cec565b820191906000526020600020905b815481529060010190602001808311611ccf57829003601f168201915b5050505050908060050154908060080160009054906101000a900460ff16905087565b600b602052816000526040600020602052806000526040600020600091509150508054611d3b9061417c565b80601f0160208091040260200160405190810160405280929190818152602001828054611d679061417c565b8015611db45780601f10611d8957610100808354040283529160200191611db4565b820191906000526020600020905b815481529060010190602001808311611d9757829003601f168201915b505050505081565b611dcd611dc761254e565b83612855565b611e0c576040517f08c379a0000000000000000000000000000000000000000000000000000000008152600401611e0390614373565b60405180910390fd5b611e1884848484612d0f565b50505050565b3373ffffffffffffffffffffffffffffffffffffffff16611e3e836110f6565b73ffffffffffffffffffffffffffffffffffffffff1614611e94576040517f08c379a0000000000000000000000000000000000000000000000000000000008152600401611e8b90614943565b60405180910390fd5b82600a60008381526020019081526020016000206000848152602001908152602001600020600301604051602001611ecd9291906149e7565b60405160208183030381529060405280519060200120600a6000838152602001908152602001600020600084815260200190815260200160002060010181905550600a60008281526020019081526020016000206000838152602001908152602001600020600601839080600181540180825580915050600190039060005260206000200160009091909190916101000a81548173ffffffffffffffffffffffffffffffffffffffff021916908373ffffffffffffffffffffffffffffffffffffffff160217905550600a60008281526020019081526020016000206000838152602001908152602001600020600701429080600181540180825580915050600190039060005260206000200160009091909190915055611fef3384846128ea565b505050565b6060611fff82612503565b600060066000848152602001908152602001600020805461201f9061417c565b80601f016020809104026020016040519081016040528092919081815260200182805461204b9061417c565b80156120985780601f1061206d57610100808354040283529160200191612098565b820191906000526020600020905b81548152906001019060200180831161207b57829003601f168201915b5050505050905060006120a9612d6b565b905060008151036120be578192505050612101565b6000825111156120f35780826040516020016120db929190614a53565b60405160208183030381529060405292505050612101565b6120fc84612d82565b925050505b919050565b6000600a6000848152602001908152602001600020600083815260200190815260200160002060020154905092915050565b6000600560008473ffffffffffffffffffffffffffffffffffffffff1673ffffffffffffffffffffffffffffffffffffffff16815260200190815260200160002060008373ffffffffffffffffffffffffffffffffffffffff1673ffffffffffffffffffffffffffffffffffffffff16815260200190815260200160002060009054906101000a900460ff16905092915050565b6000600c60008473ffffffffffffffffffffffffffffffffffffffff1673ffffffffffffffffffffffffffffffffffffffff168152602001908152602001600020828154811061221f5761221e614422565b5b9060005260206000200154905092915050565b60096020528060005260406000206000915090508060000154908060010154908060020160009054906101000a900473ffffffffffffffffffffffffffffffffffffffff16905083565b600073ffffffffffffffffffffffffffffffffffffffff166009600083815260200190815260200160002060020160009054906101000a900473ffffffffffffffffffffffffffffffffffffffff1673ffffffffffffffffffffffffffffffffffffffff1614612321576040517f08c379a000000000000000000000000000000000000000000000000000000000815260040161231890614ac3565b60405180910390fd5b6123296133bf565b8181600001818152505033816040019073ffffffffffffffffffffffffffffffffffffffff16908173ffffffffffffffffffffffffffffffffffffffff168152505060008160200181815250508060096000848152602001908152602001600020600082015181600001556020820151816001015560408201518160020160006101000a81548173ffffffffffffffffffffffffffffffffffffffff021916908373ffffffffffffffffffffffffffffffffffffffff1602179055506060820151816003019080519060200190612401929190613372565b50905050600782908060018154018082558091505060019003906000526020600020016000909190919091505581600860003373ffffffffffffffffffffffffffffffffffffffff1673ffffffffffffffffffffffffffffffffffffffff168152602001908152602001600020819055505050565b600060096000838152602001908152602001600020600301805490509050919050565b60007f01ffc9a7000000000000000000000000000000000000000000000000000000007bffffffffffffffffffffffffffffffffffffffffffffffffffffffff1916827bffffffffffffffffffffffffffffffffffffffffffffffffffffffff1916149050919050565b61250c81612dea565b61254b576040517f08c379a00000000000000000000000000000000000000000000000000000000081526004016125429061449d565b60405180910390fd5b50565b600033905090565b816004600083815260200190815260200160002060006101000a81548173ffffffffffffffffffffffffffffffffffffffff021916908373ffffffffffffffffffffffffffffffffffffffff160217905550808273ffffffffffffffffffffffffffffffffffffffff166125c9836110f6565b73ffffffffffffffffffffffffffffffffffffffff167f8c5be1e5ebec7d5bd14f71427d1e84f3dd0314c0f7b2291e5b200ac8c7c3b92560405160405180910390a45050565b600073ffffffffffffffffffffffffffffffffffffffff168273ffffffffffffffffffffffffffffffffffffffff160361267e576040517f08c379a000000000000000000000000000000000000000000000000000000000815260040161267590614b2f565b60405180910390fd5b61268781612dea565b156126c7576040517f08c379a00000000000000000000000000000000000000000000000000000000081526004016126be90614b9b565b60405180910390fd5b6126d360008383612e56565b6001600360008473ffffffffffffffffffffffffffffffffffffffff1673ffffffffffffffffffffffffffffffffffffffff168152602001908152602001600020600082825461272391906145bb565b92505081905550816002600083815260200190815260200160002060006101000a81548173ffffffffffffffffffffffffffffffffffffffff021916908373ffffffffffffffffffffffffffffffffffffffff160217905550808273ffffffffffffffffffffffffffffffffffffffff16600073ffffffffffffffffffffffffffffffffffffffff167fddf252ad1be2c89b69c2b068fc378daa952ba7f163c4a11628f55a4df523b3ef60405160405180910390a46127e460008383612e5b565b5050565b6127f182612dea565b612830576040517f08c379a000000000000000000000000000000000000000000000000000000000815260040161282790614c2d565b60405180910390fd5b8060066000848152602001908152602001600020908161285091906147dd565b505050565b600080612861836110f6565b90508073ffffffffffffffffffffffffffffffffffffffff168473ffffffffffffffffffffffffffffffffffffffff1614806128a357506128a28185612138565b5b806128e157508373ffffffffffffffffffffffffffffffffffffffff166128c984610924565b73ffffffffffffffffffffffffffffffffffffffff16145b91505092915050565b8273ffffffffffffffffffffffffffffffffffffffff1661290a826110f6565b73ffffffffffffffffffffffffffffffffffffffff1614612960576040517f08c379a000000000000000000000000000000000000000000000000000000000815260040161295790614cbf565b60405180910390fd5b600073ffffffffffffffffffffffffffffffffffffffff168273ffffffffffffffffffffffffffffffffffffffff16036129cf576040517f08c379a00000000000000000000000000000000000000000000000000000000081526004016129c690614d51565b60405180910390fd5b6129da838383612e56565b6129e5600082612556565b6001600360008573ffffffffffffffffffffffffffffffffffffffff1673ffffffffffffffffffffffffffffffffffffffff1681526020019081526020016000206000828254612a359190614d71565b925050819055506001600360008473ffffffffffffffffffffffffffffffffffffffff1673ffffffffffffffffffffffffffffffffffffffff1681526020019081526020016000206000828254612a8c91906145bb565b92505081905550816002600083815260200190815260200160002060006101000a81548173ffffffffffffffffffffffffffffffffffffffff021916908373ffffffffffffffffffffffffffffffffffffffff160217905550808273ffffffffffffffffffffffffffffffffffffffff168473ffffffffffffffffffffffffffffffffffffffff167fddf252ad1be2c89b69c2b068fc378daa952ba7f163c4a11628f55a4df523b3ef60405160405180910390a4612b4b838383612e5b565b505050565b612b5981612e60565b6000600660008381526020019081526020016000208054612b799061417c565b905014612ba057600660008281526020019081526020016000206000612b9f91906133fd565b5b50565b8173ffffffffffffffffffffffffffffffffffffffff168373ffffffffffffffffffffffffffffffffffffffff1603612c11576040517f08c379a0000000000000000000000000000000000000000000000000000000008152600401612c0890614df1565b60405180910390fd5b80600560008573ffffffffffffffffffffffffffffffffffffffff1673ffffffffffffffffffffffffffffffffffffffff16815260200190815260200160002060008473ffffffffffffffffffffffffffffffffffffffff1673ffffffffffffffffffffffffffffffffffffffff16815260200190815260200160002060006101000a81548160ff0219169083151502179055508173ffffffffffffffffffffffffffffffffffffffff168373ffffffffffffffffffffffffffffffffffffffff167f17307eab39ab6107e8899845ad3d59bd9653f200f220920489ca2b5937696c3183604051612d02919061350e565b60405180910390a3505050565b612d1a8484846128ea565b612d2684848484612f7d565b612d65576040517f08c379a0000000000000000000000000000000000000000000000000000000008152600401612d5c90614e83565b60405180910390fd5b50505050565b606060405180602001604052806000815250905090565b6060612d8d82612503565b6000612d97612d6b565b90506000815111612db75760405180602001604052806000815250612de2565b80612dc184613104565b604051602001612dd2929190614a53565b6040516020818303038152906040525b915050919050565b60008073ffffffffffffffffffffffffffffffffffffffff166002600084815260200190815260200160002060009054906101000a900473ffffffffffffffffffffffffffffffffffffffff1673ffffffffffffffffffffffffffffffffffffffff1614159050919050565b505050565b505050565b6000612e6b826110f6565b9050612e7981600084612e56565b612e84600083612556565b6001600360008373ffffffffffffffffffffffffffffffffffffffff1673ffffffffffffffffffffffffffffffffffffffff1681526020019081526020016000206000828254612ed49190614d71565b925050819055506002600083815260200190815260200160002060006101000a81549073ffffffffffffffffffffffffffffffffffffffff021916905581600073ffffffffffffffffffffffffffffffffffffffff168273ffffffffffffffffffffffffffffffffffffffff167fddf252ad1be2c89b69c2b068fc378daa952ba7f163c4a11628f55a4df523b3ef60405160405180910390a4612f7981600084612e5b565b5050565b6000612f9e8473ffffffffffffffffffffffffffffffffffffffff16613264565b156130f7578373ffffffffffffffffffffffffffffffffffffffff1663150b7a02612fc761254e565b8786866040518563ffffffff1660e01b8152600401612fe99493929190614ef8565b6020604051808303816000875af192505050801561302557506040513d601f19601f820116820180604052508101906130229190614f59565b60015b6130a7573d8060008114613055576040519150601f19603f3d011682016040523d82523d6000602084013e61305a565b606091505b50600081510361309f576040517f08c379a000000000000000000000000000000000000000000000000000000000815260040161309690614e83565b60405180910390fd5b805181602001fd5b63150b7a0260e01b7bffffffffffffffffffffffffffffffffffffffffffffffffffffffff1916817bffffffffffffffffffffffffffffffffffffffffffffffffffffffff1916149150506130fc565b600190505b949350505050565b60606000820361314b576040518060400160405280600181526020017f3000000000000000000000000000000000000000000000000000000000000000815250905061325f565b600082905060005b6000821461317d578080613166906148af565b915050600a8261317691906143f1565b9150613153565b60008167ffffffffffffffff81111561319957613198613710565b5b6040519080825280601f01601f1916602001820160405280156131cb5781602001600182028036833780820191505090505b5090505b60008514613258576001826131e49190614d71565b9150600a856131f39190614f86565b60306131ff91906145bb565b60f81b81838151811061321557613214614422565b5b60200101907effffffffffffffffffffffffffffffffffffffffffffffffffffffffffffff1916908160001a905350600a8561325191906143f1565b94506131cf565b8093505050505b919050565b6000808273ffffffffffffffffffffffffffffffffffffffff163b119050919050565b6040518061012001604052806000815260200160008019168152602001600081526020016060815260200160608152602001600081526020016060815260200160608152602001600060038111156132e2576132e1613ac9565b5b81525090565b828054828255906000526020600020908101928215613361579160200282015b828111156133605782518260006101000a81548173ffffffffffffffffffffffffffffffffffffffff021916908373ffffffffffffffffffffffffffffffffffffffff16021790555091602001919060010190613308565b5b50905061336e919061343d565b5090565b8280548282559060005260206000209081019282156133ae579160200282015b828111156133ad578251825591602001919060010190613392565b5b5090506133bb919061343d565b5090565b60405180608001604052806000815260200160008152602001600073ffffffffffffffffffffffffffffffffffffffff168152602001606081525090565b5080546134099061417c565b6000825580601f1061341b575061343a565b601f016020900490600052602060002090810190613439919061343d565b5b50565b5b8082111561345657600081600090555060010161343e565b5090565b6000604051905090565b600080fd5b600080fd5b60007fffffffff0000000000000000000000000000000000000000000000000000000082169050919050565b6134a38161346e565b81146134ae57600080fd5b50565b6000813590506134c08161349a565b92915050565b6000602082840312156134dc576134db613464565b5b60006134ea848285016134b1565b91505092915050565b60008115159050919050565b613508816134f3565b82525050565b600060208201905061352360008301846134ff565b92915050565b600081519050919050565b600082825260208201905092915050565b60005b83811015613563578082015181840152602081019050613548565b60008484015250505050565b6000601f19601f8301169050919050565b600061358b82613529565b6135958185613534565b93506135a5818560208601613545565b6135ae8161356f565b840191505092915050565b600060208201905081810360008301526135d38184613580565b905092915050565b6000819050919050565b6135ee816135db565b81146135f957600080fd5b50565b60008135905061360b816135e5565b92915050565b60006020828403121561362757613626613464565b5b6000613635848285016135fc565b91505092915050565b600073ffffffffffffffffffffffffffffffffffffffff82169050919050565b60006136698261363e565b9050919050565b6136798161365e565b82525050565b60006020820190506136946000830184613670565b92915050565b6136a38161365e565b81146136ae57600080fd5b50565b6000813590506136c08161369a565b92915050565b600080604083850312156136dd576136dc613464565b5b60006136eb858286016136b1565b92505060206136fc858286016135fc565b9150509250929050565b600080fd5b600080fd5b7f4e487b7100000000000000000000000000000000000000000000000000000000600052604160045260246000fd5b6137488261356f565b810181811067ffffffffffffffff8211171561376757613766613710565b5b80604052505050565b600061377a61345a565b9050613786828261373f565b919050565b600067ffffffffffffffff8211156137a6576137a5613710565b5b6137af8261356f565b9050602081019050919050565b82818337600083830152505050565b60006137de6137d98461378b565b613770565b9050828152602081018484840111156137fa576137f961370b565b5b6138058482856137bc565b509392505050565b600082601f83011261382257613821613706565b5b81356138328482602086016137cb565b91505092915050565b60008060006060848603121561385457613853613464565b5b600084013567ffffffffffffffff81111561387257613871613469565b5b61387e8682870161380d565b935050602061388f868287016135fc565b92505060406138a0868287016135fc565b9150509250925092565b600080604083850312156138c1576138c0613464565b5b60006138cf858286016135fc565b92505060206138e0858286016135fc565b9150509250929050565b6138f3816135db565b82525050565b6000819050919050565b61390c816138f9565b82525050565b600082825260208201905092915050565b600061392e82613529565b6139388185613912565b9350613948818560208601613545565b6139518161356f565b840191505092915050565b600081519050919050565b600082825260208201905092915050565b6000819050602082019050919050565b6139918161365e565b82525050565b60006139a38383613988565b60208301905092915050565b6000602082019050919050565b60006139c78261395c565b6139d18185613967565b93506139dc83613978565b8060005b83811015613a0d5781516139f48882613997565b97506139ff836139af565b9250506001810190506139e0565b5085935050505092915050565b600081519050919050565b600082825260208201905092915050565b6000819050602082019050919050565b6000613a5283836138ea565b60208301905092915050565b6000602082019050919050565b6000613a7682613a1a565b613a808185613a25565b9350613a8b83613a36565b8060005b83811015613abc578151613aa38882613a46565b9750613aae83613a5e565b925050600181019050613a8f565b5085935050505092915050565b7f4e487b7100000000000000000000000000000000000000000000000000000000600052602160045260246000fd5b60048110613b0957613b08613ac9565b5b50565b6000819050613b1a82613af8565b919050565b6000613b2a82613b0c565b9050919050565b613b3a81613b1f565b82525050565b600061012083016000830151613b5960008601826138ea565b506020830151613b6c6020860182613903565b506040830151613b7f60408601826138ea565b5060608301518482036060860152613b978282613923565b91505060808301518482036080860152613bb18282613923565b91505060a0830151613bc660a08601826138ea565b5060c083015184820360c0860152613bde82826139bc565b91505060e083015184820360e0860152613bf88282613a6b565b915050610100830151613c0f610100860182613b31565b508091505092915050565b60006020820190508181036000830152613c348184613b40565b905092915050565b600080600060608486031215613c5557613c54613464565b5b6000613c63868287016136b1565b9350506020613c74868287016136b1565b9250506040613c85868287016135fc565b9150509250925092565b613c98816135db565b82525050565b6000602082019050613cb36000830184613c8f565b92915050565b600060208284031215613ccf57613cce613464565b5b6000613cdd848285016136b1565b91505092915050565b600082825260208201905092915050565b6000613d0282613a1a565b613d0c8185613ce6565b9350613d1783613a36565b8060005b83811015613d48578151613d2f8882613a46565b9750613d3a83613a5e565b925050600181019050613d1b565b5085935050505092915050565b60006020820190508181036000830152613d6f8184613cf7565b905092915050565b60008060008060008060c08789031215613d9457613d93613464565b5b600087013567ffffffffffffffff811115613db257613db1613469565b5b613dbe89828a0161380d565b9650506020613dcf89828a016135fc565b955050604087013567ffffffffffffffff811115613df057613def613469565b5b613dfc89828a0161380d565b9450506060613e0d89828a016136b1565b9350506080613e1e89828a016135fc565b92505060a087013567ffffffffffffffff811115613e3f57613e3e613469565b5b613e4b89828a0161380d565b9150509295509295509295565b613e61816134f3565b8114613e6c57600080fd5b50565b600081359050613e7e81613e58565b92915050565b60008060408385031215613e9b57613e9a613464565b5b6000613ea9858286016136b1565b9250506020613eba85828601613e6f565b9150509250929050565b613ecd816138f9565b82525050565b613edc81613b1f565b82525050565b600060e082019050613ef7600083018a613c8f565b613f046020830189613ec4565b613f116040830188613c8f565b8181036060830152613f238187613580565b90508181036080830152613f378186613580565b9050613f4660a0830185613c8f565b613f5360c0830184613ed3565b98975050505050505050565b600067ffffffffffffffff821115613f7a57613f79613710565b5b613f838261356f565b9050602081019050919050565b6000613fa3613f9e84613f5f565b613770565b905082815260208101848484011115613fbf57613fbe61370b565b5b613fca8482856137bc565b509392505050565b600082601f830112613fe757613fe6613706565b5b8135613ff7848260208601613f90565b91505092915050565b6000806000806080858703121561401a57614019613464565b5b6000614028878288016136b1565b9450506020614039878288016136b1565b935050604061404a878288016135fc565b925050606085013567ffffffffffffffff81111561406b5761406a613469565b5b61407787828801613fd2565b91505092959194509250565b60008060006060848603121561409c5761409b613464565b5b60006140aa868287016136b1565b93505060206140bb868287016135fc565b92505060406140cc868287016135fc565b9150509250925092565b600080604083850312156140ed576140ec613464565b5b60006140fb858286016136b1565b925050602061410c858286016136b1565b9150509250929050565b600060608201905061412b6000830186613c8f565b6141386020830185613c8f565b6141456040830184613670565b949350505050565b7f4e487b7100000000000000000000000000000000000000000000000000000000600052602260045260246000fd5b6000600282049050600182168061419457607f821691505b6020821081036141a7576141a661414d565b5b50919050565b7f4552433732313a20617070726f76616c20746f2063757272656e74206f776e6560008201527f7200000000000000000000000000000000000000000000000000000000000000602082015250565b6000614209602183613534565b9150614214826141ad565b604082019050919050565b60006020820190508181036000830152614238816141fc565b9050919050565b7f4552433732313a20617070726f76652063616c6c6572206973206e6f7420746f60008201527f6b656e206f776e6572206e6f7220617070726f76656420666f7220616c6c0000602082015250565b600061429b603e83613534565b91506142a68261423f565b604082019050919050565b600060208201905081810360008301526142ca8161428e565b9050919050565b60006040820190506142e66000830185613670565b81810360208301526142f88184613580565b90509392505050565b7f4552433732313a2063616c6c6572206973206e6f7420746f6b656e206f776e6560008201527f72206e6f7220617070726f766564000000000000000000000000000000000000602082015250565b600061435d602e83613534565b915061436882614301565b604082019050919050565b6000602082019050818103600083015261438c81614350565b9050919050565b7f4e487b7100000000000000000000000000000000000000000000000000000000600052601260045260246000fd5b7f4e487b7100000000000000000000000000000000000000000000000000000000600052601160045260246000fd5b60006143fc826135db565b9150614407836135db565b92508261441757614416614393565b5b828204905092915050565b7f4e487b7100000000000000000000000000000000000000000000000000000000600052603260045260246000fd5b7f4552433732313a20696e76616c696420746f6b656e2049440000000000000000600082015250565b6000614487601883613534565b915061449282614451565b602082019050919050565b600060208201905081810360008301526144b68161447a565b9050919050565b7f4552433732313a2061646472657373207a65726f206973206e6f74206120766160008201527f6c6964206f776e65720000000000000000000000000000000000000000000000602082015250565b6000614519602983613534565b9150614524826144bd565b604082019050919050565b600060208201905081810360008301526145488161450c565b9050919050565b7f4d757374206265206f776e657200000000000000000000000000000000000000600082015250565b6000614585600d83613534565b91506145908261454f565b602082019050919050565b600060208201905081810360008301526145b481614578565b9050919050565b60006145c6826135db565b91506145d1836135db565b92508282019050808211156145e9576145e86143c2565b5b92915050565b60006145fa826135db565b9150614605836135db565b9250828202614613816135db565b9150828204841483151761462a576146296143c2565b5b5092915050565b60008190508160005260206000209050919050565b60006020601f8301049050919050565b600082821b905092915050565b6000600883026146937fffffffffffffffffffffffffffffffffffffffffffffffffffffffffffffffff82614656565b61469d8683614656565b95508019841693508086168417925050509392505050565b6000819050919050565b60006146da6146d56146d0846135db565b6146b5565b6135db565b9050919050565b6000819050919050565b6146f4836146bf565b614708614700826146e1565b848454614663565b825550505050565b600090565b61471d614710565b6147288184846146eb565b505050565b5b8181101561474c57614741600082614715565b60018101905061472e565b5050565b601f8211156147915761476281614631565b61476b84614646565b8101602085101561477a578190505b61478e61478685614646565b83018261472d565b50505b505050565b600082821c905092915050565b60006147b460001984600802614796565b1980831691505092915050565b60006147cd83836147a3565b9150826002028217905092915050565b6147e682613529565b67ffffffffffffffff8111156147ff576147fe613710565b5b614809825461417c565b614814828285614750565b600060209050601f8311600181146148475760008415614835578287015190505b61483f85826147c1565b8655506148a7565b601f19841661485586614631565b60005b8281101561487d57848901518255600182019150602085019450602081019050614858565b8683101561489a5784890151614896601f8916826147a3565b8355505b6001600288020188555050505b505050505050565b60006148ba826135db565b91507fffffffffffffffffffffffffffffffffffffffffffffffffffffffffffffffff82036148ec576148eb6143c2565b5b600182019050919050565b7f4e6f74204f776e65720000000000000000000000000000000000000000000000600082015250565b600061492d600983613534565b9150614938826148f7565b602082019050919050565b6000602082019050818103600083015261495c81614920565b9050919050565b600081546149708161417c565b61497a8186613534565b9450600182166000811461499557600181146149ab576149de565b60ff1983168652811515602002860193506149de565b6149b485614631565b60005b838110156149d6578154818901526001820191506020810190506149b7565b808801955050505b50505092915050565b60006040820190506149fc6000830185613670565b8181036020830152614a0e8184614963565b90509392505050565b600081905092915050565b6000614a2d82613529565b614a378185614a17565b9350614a47818560208601613545565b80840191505092915050565b6000614a5f8285614a22565b9150614a6b8284614a22565b91508190509392505050565b7f53656c6c657220416c7265616479206578697374000000000000000000000000600082015250565b6000614aad601483613534565b9150614ab882614a77565b602082019050919050565b60006020820190508181036000830152614adc81614aa0565b9050919050565b7f4552433732313a206d696e7420746f20746865207a65726f2061646472657373600082015250565b6000614b19602083613534565b9150614b2482614ae3565b602082019050919050565b60006020820190508181036000830152614b4881614b0c565b9050919050565b7f4552433732313a20746f6b656e20616c7265616479206d696e74656400000000600082015250565b6000614b85601c83613534565b9150614b9082614b4f565b602082019050919050565b60006020820190508181036000830152614bb481614b78565b9050919050565b7f45524337323155524953746f726167653a2055524920736574206f66206e6f6e60008201527f6578697374656e7420746f6b656e000000000000000000000000000000000000602082015250565b6000614c17602e83613534565b9150614c2282614bbb565b604082019050919050565b60006020820190508181036000830152614c4681614c0a565b9050919050565b7f4552433732313a207472616e736665722066726f6d20696e636f72726563742060008201527f6f776e6572000000000000000000000000000000000000000000000000000000602082015250565b6000614ca9602583613534565b9150614cb482614c4d565b604082019050919050565b60006020820190508181036000830152614cd881614c9c565b9050919050565b7f4552433732313a207472616e7366657220746f20746865207a65726f2061646460008201527f7265737300000000000000000000000000000000000000000000000000000000602082015250565b6000614d3b602483613534565b9150614d4682614cdf565b604082019050919050565b60006020820190508181036000830152614d6a81614d2e565b9050919050565b6000614d7c826135db565b9150614d87836135db565b9250828203905081811115614d9f57614d9e6143c2565b5b92915050565b7f4552433732313a20617070726f766520746f2063616c6c657200000000000000600082015250565b6000614ddb601983613534565b9150614de682614da5565b602082019050919050565b60006020820190508181036000830152614e0a81614dce565b9050919050565b7f4552433732313a207472616e7366657220746f206e6f6e20455243373231526560008201527f63656976657220696d706c656d656e7465720000000000000000000000000000602082015250565b6000614e6d603283613534565b9150614e7882614e11565b604082019050919050565b60006020820190508181036000830152614e9c81614e60565b9050919050565b600081519050919050565b600082825260208201905092915050565b6000614eca82614ea3565b614ed48185614eae565b9350614ee4818560208601613545565b614eed8161356f565b840191505092915050565b6000608082019050614f0d6000830187613670565b614f1a6020830186613670565b614f276040830185613c8f565b8181036060830152614f398184614ebf565b905095945050505050565b600081519050614f538161349a565b92915050565b600060208284031215614f6f57614f6e613464565b5b6000614f7d84828501614f44565b91505092915050565b6000614f91826135db565b9150614f9c836135db565b925082614fac57614fab614393565b5b82820690509291505056fea264697066735822122062b37cee4d040ae5d772eb2cf0a495eae820b8b4fd4daf55adf4e3f6c511af2f64736f6c63430008120033",
  "immutableReferences": {},
  "source": "// SPDX-License-Identifier: GPL-3.0\npragma solidity ^0.8.7;\n\nimport \"@openzeppelin/contracts/token/ERC721/extensions/ERC721URIStorage.sol\";\nimport \"@openzeppelin/contracts/utils/Counters.sol\";\n\ncontract NFTWarranty is ERC721URIStorage {\n    //using Counters for Counters.Counter;\n    //Counters.Counter private _tokenIds;\n\n        constructor() ERC721(\"NFTDocketWarranty\", \"NFTDW\") {}\n\n     struct seller{\n        uint256 id;\n        uint256 itemCounter;\n        address owner;\n        uint256 [] allNFTs;\n        //string tokenURI;\n     \n    }\n     struct warrantyDetails{\n        uint256 tokenId;\n        bytes32 verifyHash;\n        uint256 creationTime;\n        string  productId;\n        string imageURI;\n        uint256 expiry;\n        address[]buyers;\n        uint256[]buyersDate;\n        NFTStatus status;\n    }\n    //verify ownership\n    enum NFTStatus{\n        Pending,\n        Verified,\n        Active,\n        Expired\n    }\n    \n    uint256 [] public totalSellers;\n    mapping (address=>uint256) public addressToSellerId;\n    mapping(uint256=>seller) public allSellers;\n    mapping(uint256=>mapping(uint256=>warrantyDetails)) public sellerWarrantyDetails;\n    mapping(uint256=>mapping(uint256=>string)) public tokenURIList;\n    mapping (address=>uint256[]) public buyersCollection;\n    mapping (address=>uint256) public buyersCount;\n\n    function verifyOwnership(string memory productId,uint256 sellerId,uint256 tokenId)public returns(bool){\n        //require(sellerWarrantyDetails[sellerId][tokenId].verifyHash!=bytes32(0x0),\"Item doesn't Exist\");\n        \n        if(sellerWarrantyDetails[sellerId][tokenId].verifyHash==keccak256(abi.encode(msg.sender,productId))){\n            sellerWarrantyDetails[sellerId][tokenId].status = NFTStatus.Verified;\n            return true;\n            \n        }\n        else return false;\n    }\n    function claimNMint(uint256 sellerId,uint256 tokenId)public {\n        require(sellerWarrantyDetails[sellerId][tokenId].status == NFTStatus.Verified);\n        _mint(msg.sender,tokenId);\n        _setTokenURI(tokenId,tokenURIList[sellerId][tokenId]); \n        sellerWarrantyDetails[sellerId][tokenId].status =  NFTStatus.Active;\n \n\n    }\n    function createSeller(uint256 sellerId) public{\n        require(allSellers[sellerId].owner==address(0x0),\"Seller Already exist\");\n         seller memory newSeller;\n         newSeller.id = sellerId;\n         newSeller.owner = msg.sender;\n         newSeller.itemCounter = 0;\n         allSellers[sellerId] = newSeller;\n         totalSellers.push(sellerId);\n         addressToSellerId[msg.sender] = sellerId;\n\n    }\n    function createNFT(string memory tokenURI,uint256 sellerId,string memory productId,address customer,uint256 expiry,string memory imageURI)public{\n      //require(tokenURIList[sellerId][allSellers[sellerId].itemCounter].length==0,\"\");\n\n      require(msg.sender== allSellers[sellerId].owner,\"Must be owner\");\n      warrantyDetails memory newNFT;\n\n      newNFT.creationTime = block.timestamp;\n      newNFT.verifyHash = keccak256(abi.encode(customer,productId));\n      newNFT.expiry =  newNFT.creationTime + expiry;\n        \n      uint256 Id = allSellers[sellerId].id*1000000+allSellers[sellerId].itemCounter;\n       sellerWarrantyDetails[sellerId][Id]=newNFT;\n        sellerWarrantyDetails[sellerId][Id].productId = productId;\n      allSellers[sellerId].allNFTs.push(Id);\n      sellerWarrantyDetails[sellerId][Id].tokenId = Id;\n      sellerWarrantyDetails[sellerId][Id].verifyHash = keccak256(abi.encode(customer,productId));\n      sellerWarrantyDetails[sellerId][Id].imageURI = imageURI;\n      sellerWarrantyDetails[sellerId][Id].buyers.push(customer);\n      sellerWarrantyDetails[sellerId][Id].status =  NFTStatus.Pending;\n      sellerWarrantyDetails[sellerId][Id].buyersDate.push(newNFT.creationTime);\n      allSellers[sellerId].itemCounter++;\n      buyersCollection[customer].push(Id);\n      buyersCount[customer]++;\n\n      tokenURIList[sellerId][Id]=tokenURI;\n        \n    }\n    function resell(address to,uint256 tokenId,uint256 sellerId)public{\n       require( ownerOf(tokenId)==msg.sender,\"Not Owner\");\n      sellerWarrantyDetails[sellerId][tokenId].verifyHash = keccak256(abi.encode(to, sellerWarrantyDetails[sellerId][tokenId].productId));\n      sellerWarrantyDetails[sellerId][tokenId].buyers.push(to);\n      sellerWarrantyDetails[sellerId][tokenId].buyersDate.push(block.timestamp);\n\n            _transfer(msg.sender,to,tokenId);\n    }\n\n       function burn(uint256 tokenId)external{\n        uint256 sellerId = tokenId/1000000;\n        require(block.timestamp>=sellerWarrantyDetails[sellerId][tokenId].expiry);\n        _burn(tokenId);\n        sellerWarrantyDetails[sellerId][tokenId].status =  NFTStatus.Expired;\n\n    }\n\n\n    //READ Functions\n\n    \n \n    function getSellerNFTs(uint256 sellerId) external view returns(uint256[]memory){\n        return allSellers[sellerId].allNFTs;\n    }\n\n    function getSellers() external view returns(uint256[]memory){\n        return totalSellers;\n    }\n    function getExpiry (uint256 sellerId,uint256 tokenId)external view returns (uint256 expiry){\n        return sellerWarrantyDetails[sellerId][tokenId].expiry;\n    }\n      function getCreation (uint256 sellerId,uint256 tokenId)external view returns (uint256 creation){\n        return sellerWarrantyDetails[sellerId][tokenId].creationTime;\n    }\n    function getSellerWarrantyDetails(uint256 sellerId,uint256 tokenId)public view returns(warrantyDetails memory){\n        return sellerWarrantyDetails[sellerId][tokenId] ;\n\n    }\n     function getBuyersCollection(address add,uint256 index)public view returns(uint256){\n        return buyersCollection[add][index];\n     }\n\n      function getStatus (uint256 sellerId,uint256 tokenId)external view returns (uint256 stat){\n       if (sellerWarrantyDetails[sellerId][tokenId].status == NFTStatus.Pending)\n       {\n        return 0;\n       }\n       if (sellerWarrantyDetails[sellerId][tokenId].status == NFTStatus.Verified){\n        return 1;\n       }\n        if (sellerWarrantyDetails[sellerId][tokenId].status == NFTStatus.Active){\n        return 2;\n       }\n          if (sellerWarrantyDetails[sellerId][tokenId].status == NFTStatus.Expired){\n        return 3;\n       }\n    }\n    function getSellerNFT(uint256 sellerId,uint256 Index)external view returns(uint256){\n        return allSellers[sellerId].allNFTs[Index];\n    }\n    function getSellerNFTSize(uint256 sellerId)external view returns(uint256){\n        return allSellers[sellerId].allNFTs.length;\n    }\n\n\n\n}\n ",
  "sourcePath": "D:\\Dev\\BlockChain\\NFTDocket\\NFTDocket-master\\contracts\\NFTWarranty.sol",
  "compiler": {
    "name": "solc",
    "version": "0.8.18+commit.87f61d96.Emscripten.clang"
  },
  "schemaVersion": "3.4.8",
  "updatedAt": "2023-02-19T12:42:15.199Z",
  "networkType": "ethereum",
  "devdoc": {
    "events": {
      "Approval(address,address,uint256)": {
        "details": "Emitted when `owner` enables `approved` to manage the `tokenId` token."
      },
      "ApprovalForAll(address,address,bool)": {
        "details": "Emitted when `owner` enables or disables (`approved`) `operator` to manage all of its assets."
      },
      "Transfer(address,address,uint256)": {
        "details": "Emitted when `tokenId` token is transferred from `from` to `to`."
      }
    },
    "kind": "dev",
    "methods": {
      "approve(address,uint256)": {
        "details": "See {IERC721-approve}."
      },
      "balanceOf(address)": {
        "details": "See {IERC721-balanceOf}."
      },
      "getApproved(uint256)": {
        "details": "See {IERC721-getApproved}."
      },
      "isApprovedForAll(address,address)": {
        "details": "See {IERC721-isApprovedForAll}."
      },
      "name()": {
        "details": "See {IERC721Metadata-name}."
      },
      "ownerOf(uint256)": {
        "details": "See {IERC721-ownerOf}."
      },
      "safeTransferFrom(address,address,uint256)": {
        "details": "See {IERC721-safeTransferFrom}."
      },
      "safeTransferFrom(address,address,uint256,bytes)": {
        "details": "See {IERC721-safeTransferFrom}."
      },
      "setApprovalForAll(address,bool)": {
        "details": "See {IERC721-setApprovalForAll}."
      },
      "supportsInterface(bytes4)": {
        "details": "See {IERC165-supportsInterface}."
      },
      "symbol()": {
        "details": "See {IERC721Metadata-symbol}."
      },
      "tokenURI(uint256)": {
        "details": "See {IERC721Metadata-tokenURI}."
      },
      "transferFrom(address,address,uint256)": {
        "details": "See {IERC721-transferFrom}."
      }
    },
    "version": 1
  },
  "userdoc": {
    "kind": "user",
    "methods": {},
    "version": 1
  }
}